:03000000020C8B64
:0C0C8B00787FE4F6D8FD758157020CD28A
:0C137D00022C000002280000022A0000E0
:10146100E4F5B1F5B2F5B3F5B4F5ACF5AD120003A1
:0314710002141250
:1011E900121461120D173000031213F2E51F24FEC9
:1011F900601514601A14601B1460EB2404701B1230
:10120900143112131780DF120D17120D9180D77F39
:101219000380027F0412020A80CC1214741213AAEA
:05122900120ED080C18F
:03001B0002122EA0
:04122E00C0E0C0D08C
:101232000529E52970020528052BE52B7002052AF0
:10124200D3949AE52A9402400E052DE52D700205ED
:101252002C752A00752B00D3E5299405E528940DF9
:0C126200400AB200752800752900053410
:05126E00D0D0D0E032F9
:10138900011F00011C80021D0000C1034800030069
:07139900000000000000004D
:1000030053B1F743B20843B30843B40843B31043AF
:08001300B41075BE09D2C6222B
:100ED00053E8F043B38053B47FE4F5F643F601439F
:100EE000E101C2EFD2EE30EFFDAFC3E51E4F751E3C
:100EF00000F51DAFC2EF421EC3E51D9410500475EE
:100F00001F0122C3E51D94505004E4F51F22C3E5E0
:100F10001D94905004751F0222C3E51D94BD50041A
:100F2000751F0322C3E51D94F05004751F0422753C
:030F30001F062277
:1013F20053E8F043E80543B11053B2EFE4F5F64386
:10140200F62043E101C2EFD2EE30EFFD85C31C228C
:0E0FD400EFF00D7FD0120FE2A3EFF00D7FD0F3
:100FE200E4FED2C5C2C330C3FD8FBCC2C5C2C3308A
:100FF200C3FD8DBCC2C330C3FDD2C5C2C330C3FD65
:10100200EF4401F5BCC2C5C2C330C3FDC2C2C2C3F4
:0E10120030C3FDAEBCD2C4C2C320C4FDAF06C5
:0110200022AD
:08134C0012144C0DAB077FD019
:10135400E4F557D2C5C2C330C3FD8FBCC2C5C2C3F6
:1013640030C3FD8DBCC2C330C3FD8BBCC2C330C30C
:08137400FDD2C4C2C320C4FD78
:01137C00224E
:100F3300E4FBFAD2C5C2C330C3FD8FBCC2C5C2C372
:100F430030C3FD8DBCC2C330C3FDD2C5C2C330C3E1
:100F5300FDEF4401F5BCC2C5C2C330C3FDD2C2C25A
:100F6300C330C3FDAFBCEF4B7B00FAC2C2C2C33078
:100F7300C3FDAFBCEF4203D2C4C2C320C4FDAE0263
:020F8300AF03BA
:010F85002249
:100D17007DE37F80120F33E48F0B8E0AF509F50808
:100D27007DE57F80120F33E48F0F8E0EF50DF50CE6
:100D37007FA47E44FDFCAB0BAA0AA909A8081200F0
:100D4700A9E4FBFA7901F8120134EF24B3FFEE347A
:100D5700EDFE900001F0A3EFF07C007D0A12007316
:100D6700900001EEF0A3EFF0E47F7DFEFDFCAB0FFA
:100D7700AA0EA90DA80C1200A9E4FBFA7901F81232
:090D87000134EF24FA900000F0A1
:010D90002240
:10144C00EF75F00A84C454F0FEEF75F00A84E5F0F1
:04145C004206AF068F
:011460002269
:1012E200AC03AA0512144CAB07E4FD7FD0121354D1
:1012F200AF0212134CAF0412134CAF2412144C7DE4
:1013020004121350AF2512134CAF2612134CAB2705
:051312007D03021354ED
:10147400E4FD7FD0120FE2900003120FD4A3EFF02B
:011484002245
:101431007D047FD0120FE2900006120FD4A3EFF0CB
:0B1441007D037FD0120FE2A3EFF0222A
:100BF30000708898A8C8887000206020202020708A
:100C030000708808304080F800F8081030088870B9
:100C13000010305090F8101000F880F00808887029
:100C230000384080F088887000F808102040404069
:100C3300007088887088887000708888780810E051
:100C430000004040004040000000000000000000A1
:100C530000000000E0000000000000000000008031
:100C6300000301000000000000C0C81020409818D5
:100C730000000000000080800000000000808080F1
:080C8300000000008080808069
:0913A000013400C102C180C181C9
:10141200D292C285C286C287C295C28353890F43C4
:0F1422008920758D38758B38D2ABD2AFD28E2220
:0F12AC00D295AF1C1212BBC295C374FF951CFFE5
:1012BB00E4FEEEC39F501F00000000000000000082
:1012CB000000000000000000000000000000000013
:0612DB000000000E80DCA3
:0112E10022EA
:06069A00AD09AF36AE35DC
:0606A0008E108F11AB0566
:1006A600E4F515F514F513F5127C037DE812001E2A
:1006B6007C007D0A12001EEDAE047803C333CE33F0
:1006C600CED8F9FFEB7C002FFFEC3EFE74F32FF53E
:1006D60082740B3EF583E493FFEF4515FFE514FEA8
:1006E600E513FDE512FC78061201F78F158E148DC1
:1006F600138C12AE10AF117C007D6412001E7C00BC
:100706007D0A12001EEDAE047803C333CE33CED875
:10071600F9FFEB7C002FFFEC3EFE74F32FF582749D
:100726000B3EF583E493FFEF4515FFE514FEE51355
:10073600FDE512FC78061201F78F158E148D138CC9
:1007460012AE10AF117C007D0A12001E7C007D0ADD
:1007560012001EEDAE047803C333CE33CED8F9FFB4
:10076600EB7C002FFFEC3EFE74F32FF582740B3EFC
:10077600F583E493FFEF4515FFE514FEE513FDE56C
:1007860012FC78061201F78F158E148D138C12EB5E
:10079600900C5B93FFEF4515FFE514FEE513FDE5B1
:1007A60012FC78011201F78F158E148D138C12AE80
:1007B60010AF117C007D0A12001EEDAE047803C353
:1007C60033CE33CED8F97C002BFFEC3EFE74F32FEC
:1007D600F582740B3EF583E493FFEF4515FFE514B0
:1007E600FEE513FDE512FC78031201E48F158E1465
:0407F6008D138C12C1
:0107FA0022DC
:0603B200AD09AF36AE35C7
:0603B8008E108F11AB0551
:1003BE00E4F515F514F513F5127C177D7012001E79
:1003CE007C007D0A12001EEDAE047803C333CE33DB
:1003DE00CED8F9FFEB7C002FFFEC3EFE74F32FF529
:1003EE0082740B3EF583E493FFEF4515FFE514FE93
:1003FE00E513FDE512FC78051201F78F158E148DAD
:10040E00138C12AE10AF117C027D5812001E7C00B0
:10041E007D0A12001EEDAE047803C333CE33CED860
:10042E00F9FFEB7C002FFFEC3EFE74F32FF5827488
:10043E000B3EF583E493FFEF4515FFE514FEE51340
:10044E00FDE512FC78051201F78F158E148D138CB5
:10045E0012EB900C4393FFEF4515FFE514FEE513E9
:10046E00FDE512FC78031201F78F158E148D138C97
:10047E0012AE10AF117C027D5812001E7E007F64FA
:10048E00CFCDCFCECCCE12001EAC06AD07ED78038D
:10049E00C333CE33CED8F9FFEB7C002FFFEC3EFEFC
:1004AE0074F32FF582740B3EF583E493FFEF45153D
:1004BE00FFE514FEE513FDE512FC78051201F78F3A
:1004CE00158E148D138C12AE10AF117C027D581246
:1004DE00001E7E007F0ACFCDCFCECCCE12001E7C6A
:1004EE00007D0A12001EEDAE047803C333CE33CE68
:1004FE00D8F97C002BFFEC3EFE74F32FF582740BC3
:10050E003EF583E493FFEF4515FFE514FEE513FD7D
:10051E00E512FC78031201E48F158E148D138C12E4
:01052E0022AA
:02020A008F085B
:10020C00200207D202E4F52CF52D53E8F043B3801D
:10021C0053B47FE4F5F643F60143E101C2EFD2EEAD
:10022C0030EFFDAFC3EFC394105005750B01801573
:10023C00EFC394505006C202E4F51F22EFC3949012
:10024C005003750B02E53645356021C3E52D953617
:10025C00E52C95354002D283E5362432FFE4353562
:10026C00FED3E52D9FE52C9E4002C283E50B24FEB8
:10027C00605814700302032F24026003020373748A
:10028C000A2536F536E43535F535E4F50AE4F50995
:10029C00E508B4030512069A8008E508B4040B12AD
:1002AC0003B28F0F8E0E8D0D8C0C1210211212AC0E
:1002BC0074202580F5800509E509C3940840D10513
:1002CC000AE50AC3940A40C58055D3E5369400E587
:1002DC00359400400C74F62536F53674FF3535F53B
:1002EC0035E4F50AE4F509E508B4030512069A802D
:1002FC0008E508B4040B1203B28F0F8E0E8D0D8C13
:10030C000C1210211212AC74202580F5800509E521
:10031C0009C3940840D1050AE50AC3940A40C5757F
:10032C000B0322E4F50AE4F509E508B4030512060B
:10033C009A8008E508B4040B1203B28F0F8E0E8D51
:10034C000D8C0C1210211212AC74202580F5800536
:10035C0009E509C3940840D1050AE50AC3949640FF
:10036C00C5C202750B0522E4F509E508B4030BAD13
:10037C0009AF2DAE2C1206A0800EE508B40411AD09
:10038C0009AF2DAE2C1203B88F0F8E0E8D0D8C0C69
:10039C001210211212AC74202580F5800509E50994
:0503AC00C3940840C5E8
:0103B1002229
:02052F00AB0718
:10053100E4F511F510F50FF50EC3900001E06480AC
:1005410094805035EB900C5393FFEF4511FFE5106C
:10055100FEE50FFDE50EFC78041201F78F118E10F8
:100561008D0F8C0E900001E0FEA3E0FFC3E49FFF1E
:10057100E49E900001F0A3EFF0900001E0FEA3E003
:10058100FF7C007D64120073EF7803C333CE33CE5A
:10059100D8F9FFEB7C002FFFEC3EAD07FC74F32D87
:1005A100F582740B3CF583E493FFEF4511FFE510F1
:1005B100FEE50FFDE50EFC78051201F78F118E1097
:1005C1008D0F8C0E900001E0FEA3E0FF7C007D0A00
:1005D1001200737C007D0A120073AE04AF05EF7840
:1005E10003C333CE33CED8F9FFEB7C002FFDEC3EB5
:1005F100FC74F32DF582740B3CF583E493FFEF4516
:1006010011FFE510FEE50FFDE50EFC78051201F77F
:100611008F118E108D0F8C0EEB900C5B93FFEF45BD
:1006210011FFE510FEE50FFDE50EFC78011201F763
:100631008F118E108D0F8C0E900001E0FEA3E0FF54
:100641007C007D0A120073AE04ED7803C333CE3310
:10065100CED8F9FFEB7C002FFDEC3EFE74F32DF5B7
:1006610082740B3EF583E493FFEF4511F511E5101C
:10067100F510E50FF50FE50EF50EEB900C6393FF0A
:10068100EF4511F511E510F510E50FF50FE50EF544
:080691000EAF11AE10AD0FFC1D
:01069900223E
:020B4000AB0701
:100B4200E4F511F510F50FF50E900000E0FA75F0DE
:100B52000A84FF7E007803C333CE33CED8F9FFEB8D
:100B62007C002FFFEC3EAD07FC74F32DF582740B75
:100B72003CF583E493FFEF4511FFE510FEE50FFD21
:100B8200E50EFC78051201F78F118E108D0F8C0E79
:100B9200EA75F00A847E00E5F07803C333CE33CEE3
:100BA200D8F9FFEB7C002FFDEC3EFE74F32DF582AD
:100BB200740B3EF583E493FFEF4511FFE510FEE56C
:100BC2000FFDE50EFC78061201F78F118E108D0FC6
:100BD2008C0EEB900C6B93FFEF4511F511E510F5C0
:100BE20010E50FF50FE50EF50EAF11AE10AD0FFCCF
:010BF20022E0
:100D9100E4F509E5092420F51CE4F508AF0812057E
:100DA1002F8F0D8E0C8D0B8C0A1210291212AC7420
:100DB100202580F5800508E508C3940840DE050973
:100DC100E509C394CF40CCE4F509E5092420F51CDD
:100DD100E4F508AF08120B408F0D8E0C8D0B8C0AB9
:100DE1001210291212AC74202580F5800508E5083F
:100DF100C3940840DE0509E509C394CF40CCE4F56E
:010E01001FD1
:010E020022CD
:02093C00AB0707
:10093E00E4F510F50FF50EF50D900007E0FAC4542E
:10094E000FFF7E007803C333CE33CED8F9FFEB7C96
:10095E00002FFFEC3EAD07FC74F32DF582740B3CBB
:10096E00F583E493FFEF4510FFE50FFEE50EFDE581
:10097E000DFC78051201F78F108E0F8D0E8C0DEA7F
:10098E00540FFF7E007803C333CE33CED8F9FFEB7E
:10099E007C002FFDEC3EFC74F32DF582740B3CF5C0
:1009AE0083E493FFEF4510FFE50FFEE50EFDE50D29
:1009BE00FC78051201F78F108E0F8D0E8C0DEB90BB
:1009CE000C5393FFEF4510FFE50FFEE50EFDE50D11
:1009DE00FC78031201F78F108E0F8D0E8C0D900088
:1009EE0006E0FAC4540FFF7E007803C333CE33CE35
:1009FE00D8F9FFEB7C002FFDEC3EFC74F32DF58255
:100A0E00740B3CF583E493FFEF4510FFE50FFEE515
:100A1E000EFDE50DFC78051201F78F108E0F8D0E71
:100A2E008C0DEA540F7E007803C333CE33CED8F943
:100A3E007C002BFDEC3EFE74F32DF582740B3EF51F
:100A4E0083E493FFEF4510FFE50FFEE50EFDE50D88
:0E0A5E00FC78031201E48F108E0F8D0E8C0DAC
:010A6C002267
:10131700E4F534E534C394035027E4F508E508C33E
:10132700940850EFAF0812093C8F0C8E0B8D0A8C76
:10133700091210291212AC74202580F58005088047
:04134700DCE4F51FCE
:01134B00227F
:0207FB00AB074A
:1007FD00E4F510F50FF50EF50D900005E0FAC45473
:10080D000FFF7E007803C333CE33CED8F9FFEB7CD8
:10081D00002FFFEC3EAD07FC74F32DF582740B3CFD
:10082D00F583E493FFEF4510FFE50FFEE50EFDE5C3
:10083D000DFC78051201F78F108E0F8D0E8C0DEAC1
:10084D00540FFF7E007803C333CE33CED8F9FFEBC0
:10085D007C002FFDEC3EFC74F32DF582740B3CF502
:10086D0083E493FFEF4510FFE50FFEE50EFDE50D6B
:10087D00FC78081201F78F108E0F8D0E8C0D9000E5
:10088D0004E0FAC4540FFF7E007803C333CE33CE99
:10089D00D8F9FFEB7C002FFDEC3EFC74F32DF582B7
:1008AD00740B3CF583E493FFEF4510FFE50FFEE578
:1008BD000EFDE50DFC78051201F78F108E0F8D0ED4
:1008CD008C0DEA540F7E007803C333CE33CED8F9A6
:1008DD00FFEB7C002FFDEC3EFE74F32DF582740BC7
:1008ED003EF583E493FFEF4510FFE50FFEE50EFDAA
:1008FD00E50DFC78031201E48F108E0F8D0E8C0D1B
:10090D00EB300005900C438003900C4B9375F02059
:10091D00A4FFAEF0EF4510F510EE450FF50FE50E07
:0E092D00F50EE50DF50DAF10AE0FAD0EAC0DD5
:01093B002299
:1013AA00E4F508AF081207FB8F0C8E0B8D0A8C0927
:1013BA001210291212AC74202580F5800508E50860
:0513CA00C3940840DEA1
:0113CF0022FB
:080A6D008F178E168D158C14F5
:100A7500E4F51BF51AF519F51878101201E4E4AB45
:100A850007FAAF1BAE1AAD19AC1878011201F78F32
:100A95001B8E1A8D198C18EB5401FFE51B4FF51BA6
:100AA500E51AF51AE519F519E518F518EBC313FB61
:100AB5000ABA08CEAF17AE16AD15AC1478081201F8
:100AC500E4E4AB07FAAF1BAE1AAD19AC1878011206
:100AD50001F78F1B8E1A8D198C18EB5401FFE51B3E
:100AE5004FF51BE51AF51AE519F519E518F518EB93
:100AF500C313FB0ABA08CEE517FFE4AB07FAAF1B31
:100B0500AE1AAD19AC1878011201F78F1B8E1A8D2C
:100B1500198C18EB5401FFE51B4FF51BE51AF51A67
:100B2500E519F519E518F518EBC313FB0ABA08CE54
:0B0B3500AF1BAE1AAD19AC180201C6D0
:08102100AF0FAE0EAD0DAC0CDB
:081029008F138E128D118C1043
:10103100C291120A6D8F138E128D118C10E4FBC2B6
:1010410090E5115480FDED6004D2808002C280D20F
:1010510090AF13AE12AD11AC1078011201F78F13DE
:0C1061008E128D118C100BBB18D5D29193
:01106D002260
:0213D0008F2E5E
:1013D200E4F9AF011207FB8F328E318D308C2F1260
:0F13E20010291212AC74202580F58009B908E398
:0113F10022D9
:1012730053B1BF53B2BF53B17F53B27F759850433D
:101283008920438780438E1053C4DFAB07AA06A986
:1012930005A8047F407E427D0F7C00120134EF04D9
:0912A300F404F58DD28ED29922DB
:100E03008F3A8E398D388C3753B1BF53B2BF53B13C
:100E13007F53B27F75985043878053C4F843C420EF
:100E2300AB3AAA39A938A8377F407E427D0F7C00B0
:100E3300120134C374FF9FFF74FF9EFEE49DFDE423
:100E43009CFC78081201E48FC6AB3AAA39A938A8EA
:100E5300377F407E427D0F7C00120134C374FF9FB5
:090E6300FF8FC543C408D2992297
:071485003098FDAF99C298F9
:01148C00223D
:08148D00C2998F993099FD22EC
:100E6C008F3E8E3D8D3C8C3B53B1FB53B2FB53B349
:100E7C00BF53B4BF75F85075C40853C4DFAB3EAA5A
:100E8C003DA93CA83B7F407E427D0F7C0012013483
:100E9C00C374FF9FFF74FF9EFEE49DFDE49CFC78F1
:100EAC00081201E48FC6AB3EAA3DA93CA83B7F408B
:100EBC007E427D0F7C00120134C374FF9FFF8FC5EF
:040ECC0043C40822F1
:0714950030F8FDAF9AC2F828
:01149C00222D
:08149D00C2F98F9A30F9FD221B
:101108008F428E418D408C3F538EF7438901D28C9C
:10111800E4FFFEFDFCAB42AA41A940A83FC312016F
:10112800D36025758A7E758CFF308DFDC28DE542B2
:1011380024FFF542E54134FFF541E54034FFF54031
:0B114800E53F34FFF53F80C8C28C2259
:101153008F468E458D448C43538EF7438901D28C41
:10116300E4FFFEFDFCAB46AA45A944A843C3120114
:10117300D36025758ACA758CFA308DFDC28DE5461C
:1011830024FFF546E54534FFF545E54434FFF544D2
:0B119300E54334FFF54380C8C28C2206
:10119E008F4A8E498D488C47538EEF438910D28EDD
:1011AE00E4FFFEFDFCAB4AAA49A948A847C31201B9
:1011BE00D36025758BEA758DCB308FFDC28FE54AD6
:1011CE0024FFF54AE54934FFF549E54834FFF54873
:0B11DE00E54734FFF54780C8C28E22B1
:100F86008F4E8E4D8D4C8C4B53C9BF53C9DF43C911
:100F960010D2CAE4FFFEFDFCAB4EAA4DA94CA84BED
:100FA600C31201D3602575CC3075CDF830CFFDC2A4
:100FB600CFE54E24FFF54EE54D34FFF54DE54C34B7
:0E0FC600FFF54CE54B34FFF54B80C8C2CA2244
:10106E008F528E518D508C4F75C40743C408E4FFC8
:10107E00FEFDFCAB52AA51A950A84FC31201D3607A
:10108E002875C52C75C6CFE5C430E4FB53C4EFE517
:10109E005224FFF552E55134FFF551E55034FFF57A
:0D10AE0050E54F34FFF54F80C553C4F722C5
:1010BB008F568E558D548C5375C40743C408E4FF6B
:1010CB00FEFDFCAB56AA55A954A853C31201D3601D
:1010DB002875C5D875C6FFE5C430E4FB53C4EFE5EE
:1010EB005624FFF556E55534FFF555E55434FFF519
:0D10FB0054E55334FFF55380C553C4F7226C
:100C97000211E9E493A3F8E493A34003F68001F279
:100CA70008DFF48029E493A3F85407240CC8C3335E
:100CB700C4540F4420C8834004F456800146F6DF2D
:100CC700E4800B010204081020408090137DE47E2D
:100CD700019360BCA3FF543F30E509541FFEE49322
:100CE700A360010ECF54C025E060A840B8E493A3E9
:100CF700FAE493A3F8E493A3C8C582C8CAC583CA14
:100D0700F0A3C8C582C8CAC583CADFE9DEE780BECB
:0113A9000043
:10001E00BC000BBE0029EF8DF084FFADF022E4CCC6
:10002E00F875F008EF2FFFEE33FEEC33FCEE9DEC8F
:10003E00984005FCEE9DFE0FD5F0E9E4CEFD22EDD5
:10004E00F8F5F0EE8420D21CFEADF075F008EF2F1F
:10005E00FFED33FD4007985006D5F0F222C398FD10
:05006E000FD5F0EA22AD
:10007300C2D5EC30E709B2D5E4C39DFDE49CFCEEA8
:1000830030E715B2D5E4C39FFFE49EFE12001EC302
:10009300E49DFDE49CFC800312001E30D507C3E4FD
:0600A3009FFFE49EFE2217
:1000A900E88FF0A4CC8BF0A42CFCE98EF0A42CFCF6
:1000B9008AF0EDA42CFCEA8EF0A4CDA8F08BF0A474
:1000C9002DCC3825F0FDE98FF0A42CCD35F0FCEBD3
:1000D9008EF0A4FEA9F0EB8FF0A4CFC5F02ECD3998
:0F00E900FEE43CFCEAA42DCE35F0FDE43CFC2205
:1000F80075F008758200EF2FFFEE33FECD33CDCCBF
:1001080033CCC58233C5829BED9AEC99E582984041
:100118000CF582EE9BFEED9AFDEC99FC0FD5F0D61E
:10012800E4CEFBE4CDFAE4CCF9A88222B800C1B948
:100138000059BA002DEC8BF084CFCECDFCE5F0CB86
:10014800F97818EF2FFFEE33FEED33FDEC33FCEBBF
:1001580033FB10D703994004EB99FB0FD8E5E4F97A
:10016800FA227818EF2FFFEE33FEED33FDEC33FC67
:10017800C933C910D7059BE99A4007EC9BFCE99A5B
:10018800F90FD8E0E4C9FAE4CCFB2275F010EF2FA0
:10019800FFEE33FEED33FDCC33CCC833C810D707A0
:1001A8009BEC9AE899400AED9BFDEC9AFCE899F8DB
:0E01B8000FD5F0DAE4CDFBE4CCFAE4C8F9226E
:0D01C600CFF4CFCEF4CECDF4CDCCF4CC22CE
:1001D300EB9FF5F0EA9E42F0E99D42F0E89C45F082
:0101E30022F9
:1001E400E8600FECC313FCED13FDEE13FEEF13FFF9
:0301F400D8F1221D
:1001F700E8600FEFC333FFEE33FEED33FDEC33FC66
:03020700D8F12209
:00000001FF
